:100000000C9401020C9429020C9429020C942902EC
:100010000C9429020C9429020C9429020C942902B4
:100020000C9429020C9429020C9429020C942902A4
:100030000C9429020C9429020C9429020C94290294
:100040000C9418110C9429020C94B30D0C94E50D2A
:100050000C9429020C9429020C9429020C94290274
:100060000C9429020C94290272656D6F76696E6793
:100070000067657474696E67320067657474696ED1
:1000800067006C656E6768745F61667465720061B5
:100090006464696E67006C656E6768745F6265664C
:1000A0006F726500443A5C54545C6669726D7761A6
:1000B00072652D746573745C73746F726965735CBB
:1000C000636F6D6D6F6E5C2E2E5C2E2E5C6175788D
:1000D000696C696172795C736B6574636865735C84
:1000E000746D705C646174616D61702D75745C74A5
:1000F000656D705C646174616D61702D75742E63E3
:1001000070700062003D3D007472756500443A5C99
:1001100054545C6669726D776172652D7465737491
:100120005C73746F726965735C636F6D6D6F6E5C29
:100130002E2E5C2E2E5C617578696C696172795C1B
:10014000736B6574636865735C746D705C64617413
:10015000616D61702D75745C74656D705C64617443
:10016000616D61702D75742E6370700062003D3D8D
:10017000007472756500443A5C54545C6669726D33
:10018000776172652D746573745C73746F726965E1
:10019000735C636F6D6D6F6E5C2E2E5C2E2E5C61DA
:1001A0007578696C696172795C736B657463686595
:1001B000735C746D705C646174616D61702D7574D5
:1001C0005C74656D705C646174616D61702D7574D3
:1001D0002E6370700062003D3D00747275650044CE
:1001E0003A5C54545C6669726D776172652D746512
:1001F00073745C73746F726965735C636F6D6D6F3C
:100200006E5C2E2E5C2E2E5C617578696C69617255
:10021000795C736B6574636865735C746D705C6442
:100220006174616D61702D75745C74656D705C6472
:100230006174616D61702D75742E637070007369E7
:100240007A65003D3D0033002C206C696E6520000E
:10025000292C2066696C6520003D0020280029209B
:10026000003D003A2028006661696C656400706199
:100270007373656400417373657274696F6E2000F7
:10028000443A5C54545C6669726D776172652D7492
:100290006573745C73746F726965735C636F6D6DA5
:1002A0006F6E5C2E2E5C2E2E5C617578696C6961B8
:1002B00072795C736B6574636865735C746D705C94
:1002C000646174616D61702D75745C74656D705CD2
:1002D000646174616D61702D75742E63707000625D
:1002E00031202626206232202626206233003D3D22
:1002F0000074727565002C206C696E652000292CD5
:100300002066696C6520003D002028002920003D02
:10031000003A2028006661696C656400706173733F
:10032000656400417373657274696F6E2000443AAE
:100330005C54545C6669726D776172652D74657387
:10034000745C73746F726965735C636F6D6D6F6EEF
:100350005C2E2E5C2E2E5C617578696C69617279F9
:100360005C736B6574636865735C746D705C646109
:1003700074616D61702D75745C74656D705C646121
:1003800074616D61702D75742E6370700073697A7D
:1003900065003D3D00300020746573742873292E7C
:1003A0000020736B69707065642C206F7574206F0A
:1003B000662000206661696C65642C20616E642093
:1003C00000207061737365642C2000546573742081
:1003D00073756D6D6172793A2000206661696C6594
:1003E000642E00207061737365642E0020736B6946
:1003F000707065642E005465737420008E07150EAE
:10040000EC0711241FBECFEFD8E0DEBFCDBF11E057
:10041000A0E0B1E0E2E9F8E202C005900D92A63F4B
:10042000B107D9F722E0A6EFB1E001C01D92A83FC5
:10043000B207E1F713E0C0E0D4E004C02297FE0168
:100440000E94E911CC3FD107C9F70E94590E0C94C4
:100450003C140C94000080E00895FC0181E0408190
:100460005181FB01208131814217530709F080E05F
:100470000895FC0181E02081FB019081291380E037
:1004800008952CED31E0FC01318320830C94B00BF6
:100490002CEB31E0FC01318320830C9441022EEAE5
:1004A00031E0FC01318320830C94410220EA31E0E9
:1004B000FC01318320830C94410222E931E0FC01EC
:1004C000318320830C94410224E831E0FC01318324
:1004D00020830C94410226E731E0FC013183208324
:1004E0000C944102CF93DF93EC010E944102CE01B4
:1004F000DF91CF910C946A0ECF93DF93EC010E94B1
:100500004802CE01DF91CF910C946A0ECF93DF9316
:10051000EC010E944F02CE01DF91CF910C946A0E44
:10052000CF93DF93EC010E945602CE01DF91CF9171
:100530000C946A0ECF93DF93EC010E945D02CE0112
:10054000DF91CF910C946A0ECF93DF93EC010E9460
:100550006402CE01DF91CF910C946A0ECF93DF93AA
:10056000EC010E946B02CE01DF91CF910C946A0ED8
:100570000F931F93CF93DF9386EF91E00E94480281
:1005800082E092E00E944F028EE092E00E945602CA
:100590008AE192E00E945D0286E292E00E9464029B
:1005A00082E392E00E946B0280E791E090933F0229
:1005B00080933E02C0914002D0914102209701F108
:1005C0000A811B810115110581F0F801848595854B
:1005D0009B838A83C80106960E94D80FC8010E9497
:1005E000D80FC8010E946A0EEBCF1D821C821982AF
:1005F0001882CE01DF91CF911F910F910C946A0E5A
:10060000DF91CF911F910F91089526E040E855E2C8
:1006100060E070E08EE492E00C94510D0C94160CA6
:100620004F925F926F927F928F929F92AF92BF9202
:10063000CF92DF92EF92FF920F931F93CF93DF93AE
:100640002C014B013A01E901B501C901F7010995F6
:10065000F82E8111ABC080914A0290914B02009715
:1006600011F00E94120C8091090184FFB0C08091AA
:10067000080184FF0DC063E273E080910601909150
:1006800007010E94AA0EFF2071F06CE173E00DC01B
:10069000E0914A02F0914B02309709F498C08385AB
:1006A00084FDE9CF94C065E173E0809106019091EB
:1006B00007010E94AA0E61E173E08091060190910A
:1006C00007010E94AA0EB3018091060190910701D3
:1006D0000E94AA0E6FE073E08091060190910701DD
:1006E0000E94AA0E688179814AE050E0809106015B
:1006F000909107010E94BD0F6CE073E080910601AC
:10070000909107010E94AA0EB80180910601909174
:1007100007010E94AA0E69E073E0809106019091A2
:1007200007010E94AA0EB60180910601909107016F
:100730000E94AA0E67E073E0809106019091070184
:100740000E94AA0EF501608171814AE050E080911B
:100750000601909107010E94BD0F6EEF72E080913B
:100760000601909107010E94AA0EB2018091060134
:10077000909107010E94AA0E66EF72E08091060137
:10078000909107010E94AA0E4AE050E0B4018091C6
:100790000601909107010E94D20F6AE071E08091FA
:1007A0000601909107010E94080F11C08091090174
:1007B00085FF0DC08091080185FD5DCFE0914A0263
:1007C000F0914B02309719F0838585FD54CF8F2D22
:1007D000DF91CF911F910F91FF90EF90DF90CF901D
:1007E000BF90AF909F908F907F906F905F904F9051
:1007F0000895AF92BF92CF92DF92EF92FF920F9344
:100800001F93CF93DF9300D000D0CDB7DEB7E09138
:100810004002F0914102808191819C838B831A82F6
:100820001982CE0101965C0185E9C82E83E0D82E9D
:100830009DE2E92E92E0F92E02E913E09E012D5F80
:100840003F4F4DE853E062E170E08EE293E00E949A
:1008500010030F900F900F900F90DF91CF911F9189
:100860000F91FF90EF90DF90CF90BF90AF900895E1
:10087000AF92BF92CF92DF92EF92FF920F931F93AE
:10088000CF93DF9300D000D0CDB7DEB7E091400228
:10089000F0914102808191819C838B8383E090E081
:1008A0009A838983CE0101965C0126E4C22E22E060
:1008B000D22E3DE2E32E32E0F32E03E412E09E015D
:1008C0002D5F3F4F4EE352E06FE170E08FED91E01E
:1008D0000E9410030F900F900F900F90DF91CF9117
:1008E0001F910F91FF90EF90DF90CF90BF90AF904E
:1008F00008954F925F926F927F928F929F92AF92E4
:10090000BF92CF92DF92EF92FF920F931F93CF93FC
:10091000DF932C014B013A01E901B501C901F7014F
:100920000995F82E8111ABC080914A0290914B023B
:10093000009711F00E94120C8091090184FFB0C051
:100940008091080184FF0DC065E772E08091060187
:10095000909107010E94AA0EFF2071F06EE672E0EE
:100960000DC0E0914A02F0914B02309709F498C013
:10097000838584FDE9CF94C067E672E0809106012B
:10098000909107010E94AA0E63E672E08091060131
:10099000909107010E94AA0EB301809106019091E7
:1009A00007010E94AA0E61E672E080910601909113
:1009B00007010E94AA0E688170E04AE050E0809131
:1009C0000601909107010E94BD0F6EE572E08091D3
:1009D0000601909107010E94AA0EB80180910601BC
:1009E000909107010E94AA0E6BE572E080910601CA
:1009F000909107010E94AA0EB60180910601909184
:100A000007010E94AA0E69E572E0809106019091AB
:100A100007010E94AA0EF501608170E04AE050E0F3
:100A200080910601909107010E94BD0F60E572E080
:100A300080910601909107010E94AA0EB201809157
:100A40000601909107010E94AA0E68E472E080916D
:100A50000601909107010E94AA0E4AE050E0B401FD
:100A600080910601909107010E94D20F6AE071E027
:100A700080910601909107010E94080F11C080919A
:100A8000090185FF0DC08091080185FD5DCFE091D2
:100A90004A02F0914B02309719F0838585FD54CFBF
:100AA0008F2DDF91CF911F910F91FF90EF90DF90ED
:100AB000CF90BF90AF909F908F907F906F905F90FE
:100AC0004F900895AF92BF92CF92DF92EF92FF9234
:100AD0000F931F93CF93DF93CDB7DEB72C970FB64D
:100AE000F894DEBF0FBECDBF6CE071E0CE01019681
:100AF0000E94461067E171E0CE0107960E94461001
:100B0000AE014F5F5F4FBE01695F7F4F8EE392E0A2
:100B10000E941808082FCE0107960E94D80FCE0118
:100B200001960E94D80F6DE571E0CE0101960E94FA
:100B300046106FE171E0CE0107960E944610AE01AB
:100B40004F5F5F4FBE01695F7F4F8EE392E00E946F
:100B50001808182FCE0107960E94D80FCE010196D3
:100B60000E94D80F6BE271E0CE0101960E94461000
:100B700060E471E0CE0107960E944610AE014F5F1F
:100B80005F4FBE01695F7F4F8EE392E00E941808BD
:100B9000F82ECE0107960E94D80FCE0101960E9432
:100BA000D80F81E08983002321F0112311F08F2DCC
:100BB00001C080E08F83CE0101965C0141EFC42E1D
:100BC00042E0D42E59E3E52E52E0F52E0EEE12E06F
:100BD0009E01295F3F4F4FED52E06AE170E080E8EF
:100BE00092E00E9479042C960FB6F894DEBF0FBEF7
:100BF000CDBFDF91CF911F910F91FF90EF90DF90CC
:100C0000CF90BF90AF900895AF92BF92CF92DF92F6
:100C1000EF92FF920F931F93CF93DF93CDB7DEB781
:100C200062970FB6F894DEBF0FBECDBF6BE071E0E8
:100C3000CE010D960E94461067E171E0CE01079645
:100C40000E944610AE01495F5F4F6EE372E0CE0135
:100C500001960E94A908BE016F5F7F4FCE010D96DD
:100C60000E945C10CE0101960E94D80FCE0107961B
:100C70000E94D80F6CE071E0CE010D960E94F21038
:100C800091E0811101C090E09F8381E08983CE01D2
:100C900001965C016AEDC62E61E0D62E79E3E72E5F
:100CA00072E0F72E07ED11E09E01295F3F4F45ED01
:100CB00051E067E270E086E791E00E947904CE019E
:100CC0000D960E94D80F62960FB6F894DEBF0FBE45
:100CD000CDBFDF91CF911F910F91FF90EF90DF90EB
:100CE000CF90BF90AF900895AF92BF92CF92DF9216
:100CF000EF92FF920F931F93CF93DF93CDB7DEB7A1
:100D000062970FB6F894DEBF0FBECDBF6BE071E007
:100D1000CE010D960E94461060E471E0CE01079668
:100D20000E944610AE01495F5F4F6EE372E0CE0154
:100D300001960E94A908BE016F5F7F4FCE010D96FC
:100D40000E945C10CE0101960E94D80FCE0107963A
:100D50000E94D80F6FE171E0CE0107960E94461005
:100D6000AE01495F5F4F6EE372E0CE0101960E94D3
:100D7000A908BE016F5F7F4FCE010D960E94A8109B
:100D8000CE0101960E94D80FCE0107960E94D80F7F
:100D900069E471E0CE010D960E94F21091E081119C
:100DA00001C090E09F8381E08983CE0101965C01C0
:100DB000E1E7CE2EE1E0DE2EF9E3EF2EF2E0FF2EAA
:100DC0000EE611E09E01295F3F4F4CE651E061E3E2
:100DD00070E08DE091E00E947904CE010D960E94B2
:100DE000D80F62960FB6F894DEBF0FBECDBFDF916D
:100DF000CF911F910F91FF90EF90DF90CF90BF9018
:100E0000AF900895AF92BF92CF92DF92EF92FF9290
:100E10000F931F93CF93DF93CDB7DEB762970FB6D3
:100E2000F894DEBF0FBECDBF6FE171E0CE01019639
:100E30000E944610BE016F5F7F4F8EE392E00E94DA
:100E4000D009CE0101960E94D80F6BE071E0CE016F
:100E50000D960E9446106FE171E0CE0107960E9448
:100E60004610AE01495F5F4F6EE372E0CE0101961E
:100E70000E94A908BE016F5F7F4FCE010D960E94B0
:100E80005C10CE0101960E94D80FCE0107960E94F9
:100E9000D80F62E671E0CE010D960E94F210882311
:100EA00061F0E0914002F091410221E08081918166
:100EB000029709F020E0822F01C080E08F8381E05B
:100EC0008983CE0101965C01A8E0CA2EA1E0DA2E4A
:100ED000B9E3EB2EB2E0FB2E05E011E09E01295FA5
:100EE0003F4F43E051E06AE370E084EA90E00E9403
:100EF0007904CE010D960E94D80F62960FB6F89431
:100F0000DEBF0FBECDBFDF91CF911F910F91FF903C
:100F1000EF90DF90CF90BF90AF90089580E791E081
:100F200090933F0280933E0286E090E00E94680E1C
:100F3000FC01118210821582148213821282909316
:100F400041028093400266E970E082E392E00E94F1
:100F50005D0C86E791E090933302809332026FE854
:100F600070E086E292E00E945D0C84E891E090934C
:100F700027028093260262E870E08AE192E00E94F4
:100F80005D0C82E991E090931B0280931A026AE75C
:100F900070E08EE092E00E945D0C80EA91E0909318
:100FA0000F0280930E0261E770E082E092E00E94FF
:100FB0005D0C8EEA91E0909303028093020268E652
:100FC00070E086EF91E00E945D0C8CEB91E09093D5
:100FD000F7018093F60108950C94B802EF92FF9206
:100FE0000F931F93CF93DF938B01FC01C281D381B9
:100FF00080819181892B59F0E12CF12C209751F0BF
:10100000B801CE010E941111811106C003C080E019
:1010100090E007C0C70105C07E010C84DD85C02DAE
:10102000EDCFDF91CF911F910F91FF90EF90089539
:101030006F927F928F929F92AF92BF92CF92DF92E8
:10104000EF92FF920F931F93CF93DF9300D0CDB712
:10105000DEB76C018A018EE090E069837A830E949A
:10106000680E3C0169817A810E947310430186E019
:10107000880E911CB801C4010E947310D3011D9603
:101080001C921E921C97F60102811381D801AD902B
:10109000BC90B301C8010E94EE077C01009791F05B
:1010A000FC0184859585009771F1B3010E94DF10E2
:1010B000882349F1F70184859585B40106960E943D
:1010C0005C1012C0D80112968D919C911397F30178
:1010D0009587848713967C926E9212978D919C913E
:1010E000119701968D939C93012B59F0D60112967E
:1010F000ED91FC91139781E020813181A216B30616
:10110000BCF080E015C0D7011C968D919C911D9775
:10111000F301958784871D967C926E921C97D80167
:101120002D913C9111972F5F3F4F2D933C93DCCF36
:101130000F900F90DF91CF911F910F91FF90EF9043
:10114000DF90CF90BF90AF909F908F907F906F90E7
:101150000895CF92DF92EF92FF920F931F93CF9358
:10116000DF93EC018B016A01BA01D80112968D91CF
:101170009C9113970E94EE077C01009771F0FC018F
:10118000848595850097C9F0B6010E94DF108823F9
:10119000A1F0F701648575851DC0D8011296ED9107
:1011A000FC91139780819181892B39F0B60182815E
:1011B00093810E94DF10811106C062E671E0CE01CA
:1011C0000E9446100CC0D8011296ED91FC91139725
:1011D000628173816A5F7F4FCE010E947310CE01DE
:1011E000DF91CF911F910F91FF90EF90DF90CF9003
:1011F0000895CF93DF93EC0106960E94D80FCE019D
:10120000DF91CF910C94D80FEF92FF920F931F9321
:10121000CF93DF93EC01888199818130910581F42E
:101220000A811B810115110531F0C8010E94F908DE
:10123000C8010E946A0E1B821A821D821C8218C07D
:101240000297DCF06C817D81CE010E94EE077C016B
:101250000C811D810115110531F0C8010E94F908AA
:10126000C8010E946A0EF70115861486FD82EC8281
:1012700088819981019799838883CE01DF91CF91ED
:101280001F910F91FF90EF900895EF92FF920F93AF
:101290001F93CF93DF93EC01888199818130910571
:1012A00021F4CE010E94040917C00297ACF00A8114
:1012B0001B81F801E484F5840115110531F0C801A2
:1012C0000E94F908C8010E946A0EFB82EA828881A6
:1012D0009981019799838883CE01DF91CF911F91E6
:1012E0000F91FF90EF900895CF92DF92EF92FF92CF
:1012F0000F931F93CF93DF93EC018B01888199812A
:101300008130910559F46A817B81C8010E94DF1008
:101310008823E1F1CE010E94450938C00297B4F15B
:101320006A817B81C8010E94DF108111F3CF6C813B
:101330007D81C8010E94DF10882321F0CE010E9428
:10134000040924C0B801CE010E94EE076C01009789
:10135000E9F0FC01E484F584E114F104B9F0B8018A
:10136000C7010E94DF10882389F0F70184859585E5
:10137000F60195878487C7010E94F908C7010E947A
:101380006A0E88819981019799838883CE01DF91C4
:10139000CF911F910F91FF90EF90DF90CF90089524
:1013A0000F931F93CF93DF93EC018A819B81FC0104
:1013B000008111810E947409892B41F0EA81FB812F
:1013C00081E020813181201731070CF080E0DF912E
:1013D000CF911F910F9108950895CF93DF93EC0162
:1013E000E881F9810084F185E02D09958C818130B7
:1013F00011F483E08C83DF91CF9108959B01FC0170
:10140000628173818481958197FF03C0C9010C9427
:10141000AA0EC9010C94CF0E0F931F93FB01BA01C2
:10142000422FDC0112960D911D912D913C91159743
:1014300050E0600F711FCF0137FF04C01F910F9163
:101440000C94E3131F910F910C94EC13BF92CF9265
:10145000DF92EF92FF920F931F93CF93DF93CDB75D
:10146000DEB728970FB6F894DEBF0FBECDBF7C0164
:101470006B0100E010E0802F8370B82E81F424E02F
:10148000A801BE016B5F7F4FC7010E940C0A24E0D8
:10149000A801BE016F5F7F4FC6010E940C0A2B2D71
:1014A00030E0E5E0F0E0EC0FFD1FE20FF31F80817C
:1014B000E1E0F0E0EC0FFD1FE20FF31F90818917D0
:1014C00038F0981738F0882339F00F5F1F4FD3CFCB
:1014D0008FEF03C081E001C080E028960FB6F8943A
:1014E000DEBF0FBECDBFDF91CF911F910F91FF9057
:1014F000EF90DF90CF90BF900895FF920F931F93CE
:10150000CF93DF93EC01E0914A02F0914B0284818A
:1015100001E0833009F000E011E0843009F010E0D0
:10152000FF24F394823009F0F12C011105C0111150
:101530000FC0F11019C03BC0209146023091470204
:101540002F5F3F4F3093470220934602112351F003
:1015500020914402309145022F5F3F4F3093450266
:1015600020934402FF20B9F02091420230914302BF
:101570002F5F3F4F30934302209342028091090135
:1015800083FF09C08091080183FD9CC0309719F04A
:10159000838583FD97C0002321F08091090182FD9E
:1015A0007CC0112321F08091090181FD81C08091CF
:1015B0004C0290914D02892B09F0B5C08091090130
:1015C00080FFB1C08091080180FD0AC0E0914A020D
:1015D000F0914B02309709F4A6C0838580FFA3C029
:1015E0006BEC73E080910601909107010E94AA0EB6
:1015F00060914602709147024AE050E080910601F6
:10160000909107010E94D20F61EC73E08091060176
:10161000909107010E94AA0E6091440270914502C8
:101620004AE050E080910601909107010E94D20F9C
:1016300063EB73E080910601909107010E94AA0E6E
:1016400060914202709143024AE050E080910601AD
:10165000909107010E94D20F61EA73E08091060128
:10166000909107010E94AA0E609148027091490270
:101670004AE050E080910601909107010E94D20F4C
:1016800067E973E08091060190910701DF91CF91A6
:101690001F910F91FF900C94F60E8091080182FD2E
:1016A00011C0309709F47DCF838582FD0BC079CFBF
:1016B0008091080181FD06C0309709F478CF8385B9
:1016C00081FF75CF66EF73E080910601909107016D
:1016D0000E94AA0EBE016B5F7F4F80910601909120
:1016E00007010E94D80EFF2041F06CEE73E080915C
:1016F0000601909107010E94F60E002341F063EE6F
:1017000073E080910601909107010E94F60E11236B
:1017100009F44DCF6AED73E08091060190910701C5
:101720000E94F60E44CFDF91CF911F910F91FF9051
:101730000895E0914C02F0914D02ACE4B2E0309794
:1017400071F0E817F90729F4828193818D939C93B6
:101750000895DF0112960280F381E02DF0CF089505
:1017600020ED31E0FC01318320830C94990BCF9361
:10177000DF93EC010E94B00BCE01DF91CF910C946E
:101780006A0EEF92FF920F931F93CF93DF938C011A
:10179000FC011482CCE4D2E07C01F5E0EF0EF11CF8
:1017A000688179816115710539F06B5F7F4FC701E1
:1017B0000E94260A1816BCF088819981F80193834B
:1017C000828319830883809148029091490201968F
:1017D0009093490280934802DF91CF911F910F911E
:1017E000FF90EF9008950990D881C02D2296D8CF10
:1017F0000F931F9320ED31E0FC01318320832AEC0D
:1018000031E0368325838B01222717FD2095322F67
:101810003068078310872187328743871F910F9194
:101820000C94C10B24E0FC01248308951F93CF93F3
:10183000DF93CCE4D2E011E0888199810097C9F16F
:1018400090934B0280934A02DC0114962C911497DA
:10185000213039F4ED91FC910280F381E02D09955E
:1018600011C021110FC0DC01ED91FC910190F081BC
:10187000E02D0995E0914A02F0914B02848181119B
:1018800001C01483E0914A02F0914B028481E88107
:10189000F981813059F08281938199838883809185
:1018A0004A0290914B020E947D0AC6CFEF01229618
:1018B000C3CFDF91CF911F910895CF93DF93EC01B8
:1018C0004FE10E94F80B8CED91E099838883DF91C2
:1018D000CF9108950E94DE13FC01818D228D90E04E
:1018E000805C9F4F821B910960E470E00E949D1113
:1018F0000895FC01918D828D981731F0828DE80F4B
:10190000F11D858D90E008958FEF9FEF0895FC0104
:10191000918D828D981761F0828DDF01A80FB11D26
:101920005D968C91928D9F5F9F73928F90E008954A
:101930008FEF9FEF08958BE09EE0892B49F080E0C8
:1019400090E0892B29F00E940B0E81110C9400006D
:101950000895FC01848DDF01A80FB11DA35ABF4F6C
:101960002C91848D90E001968F739927848FA6899E
:10197000B7892C93A089B1898C9180648C93938DC5
:10198000848D981306C00288F389E02D80818F7DB5
:1019900080830895CF93DF93EC01888D8823C9F06D
:1019A000EA89FB89808185FD05C0A889B9898C9168
:1019B00086FD0FC00FB607FCF5CF808185FFF2CF03
:1019C000A889B9898C9185FFEDCFCE010E94A90C21
:1019D000E7CFDF91CF910895CF92DF92FF920F93DF
:1019E0001F93CF93DF931F92CDB7DEB76C01DC015D
:1019F0005B969C915B975C968C915C97981307C063
:101A00005096ED91FC915197808185FD32C0F60191
:101A1000038D10E00F5F1F4F0F731127F02EF6019B
:101A2000848DF81211C00FB607FCF9CFD60150967D
:101A3000ED91FC915197808185FFF1CFC6016983BB
:101A40000E94A90C6981EBCF838DE80FF11DE35A49
:101A5000FF4F6083D6015B960C935B975296ED9196
:101A6000FC91539780818062808381E058968C93AB
:101A70000DC0D6015696ED91FC9157976083509614
:101A8000ED91FC91519780818064808381E090E0AA
:101A90000F90DF91CF911F910F91FF90DF90CF902A
:101AA0000895BF92CF92DF92EF92FF92CF93DF9390
:101AB000EC016A017B01B22EE889F98982E080831A
:101AC000411581EE580761057105A1F060E079E0EC
:101AD0008DE390E0A70196010E94B11121503109D8
:101AE000410951095695479537952795211580E16C
:101AF000380798F0E889F989108260E874E88EE187
:101B000090E0A70196010E94B111215031094109CD
:101B100051095695479537952795EC85FD85308376
:101B2000EE85FF852083188EEC89FD89B082EA89D5
:101B3000FB89808180618083EA89FB89808188605C
:101B40008083EA89FB89808180688083EA89FB89B8
:101B500080818F7D8083DF91CF91FF90EF90DF9028
:101B6000CF90BF9008951F920F920FB60F9211243D
:101B70002F938F939F93EF93FF93E0915E02F091E9
:101B80005F028081E0916402F091650282FD12C0E3
:101B90009081809167028F5F8F7320916802821716
:101BA00051F0E0916702F0E0E25BFD4F958F80938A
:101BB000670201C08081FF91EF919F918F912F91DA
:101BC0000F900FBE0F901F9018951F920F920FB697
:101BD0000F9211242F933F934F935F936F937F93B3
:101BE0008F939F93AF93BF93EF93FF938EE492E015
:101BF0000E94A90CFF91EF91BF91AF919F918F919E
:101C00007F916F915F914F913F912F910F900FBEF8
:101C10000F901F9018958EE492E00E946C0C21E0CA
:101C2000892B09F420E0822F08951092510210921E
:101C3000500288EE93E0A0E0B0E0809352029093CF
:101C40005302A0935402B09355028AEE91E0909310
:101C50004F0280934E0285EC90E090935B0280935C
:101C60005A0284EC90E090935D0280935C0280ECD9
:101C700090E090935F0280935E0281EC90E09093FD
:101C800061028093600282EC90E090936302809303
:101C9000620286EC90E09093650280936402109259
:101CA0006702109268021092690210926A02089507
:101CB00008950E9462110E94580E0E940503CBE90C
:101CC000DCE00E940E032097E1F30E949B0CF9CF09
:101CD0000C94ED110C948512CF92DF92EF92FF924B
:101CE0000F931F93CF93DF936C017A01EB01E60E04
:101CF000F71E00E010E0CE15DF0561F06991D60116
:101D0000ED91FC910190F081E02DC6010995080F3D
:101D1000191FF1CFC801DF91CF911F910F91FF9053
:101D2000EF90DF90CF9008956115710581F0DB0190
:101D30000D900020E9F7AD0141505109461B570BAA
:101D4000DC01ED91FC910280F381E02D099480E0AB
:101D500090E00895EF92FF920F931F93CF93DF933C
:101D60008C01FB01C0E0D0E064917F018FEFE81AA5
:101D7000F80A662361F0D801ED91FC910190F081A1
:101D8000E02DC8010995C80FD91FF701EDCFCE018D
:101D9000DF91CF911F910F91FF90EF9008950C94D8
:101DA000940EDC01ED91FC910190F081E02D0994FD
:101DB000DB01ED91FC9111970190F081E02DBC01C8
:101DC000CD0109940F931F93CF93DF93EC016DE046
:101DD0000E94D10E8C016AE0CE010E94D10E800FCC
:101DE000911FDF91CF911F910F9108950F931F9332
:101DF000CF93DF93EC010E94AA0E8C01CE010E94CA
:101E0000E20E800F911FDF91CF911F910F910895E6
:101E10000F931F93CF93DF93EC010E94940E8C01DC
:101E2000CE010E94E20E800F911FDF91CF911F9192
:101E30000F9108958F929F92AF92BF92CF92DF92AF
:101E4000EF92FF920F931F93CF93DF93CDB7DEB73F
:101E5000A1970FB6F894DEBF0FBECDBF7C01C42E94
:101E6000E52FCB01D22E19A221E02D1510F02AE08A
:101E7000D22E8E010F5D1F4F8D2C912CA12CB12CD9
:101E80006C2D7E2FA50194010E94B1118C2DD29E44
:101E900080191124015011098A3014F4805D01C0A9
:101EA000895CF8018083211531054105510521F038
:101EB000C22EE32FCA01E4CFB801C7010E94940EDD
:101EC000A1960FB6F894DEBF0FBECDBFDF91CF91C4
:101ED0001F910F91FF90EF90DF90CF90BF90AF9048
:101EE0009F908F900895CF92DF92EF92FF920F9381
:101EF0001F93CF93DF93EC016A017B01211531051C
:101F000079F4E881F9810190F081E02D642FDF916F
:101F1000CF911F910F91FF90EF90DF90CF90099498
:101F20002A303105E9F477FF1AC06DE20E94D10E24
:101F30008C0144275527BA014C195D096E097F09A8
:101F40002AE0CE010E941A0F800F911FDF91CF91DE
:101F50001F910F91FF90EF90DF90CF9008952AE0AE
:101F6000B701A601CE01DF91CF911F910F91FF9094
:101F7000EF90DF90CF900C941A0F9A01AB01662777
:101F800057FD6095762F0C94730F2115310541F4A0
:101F9000DC01ED91FC910190F081E02D642F09941A
:101FA0000C941A0F9A01AB0160E070E00C94C50F1D
:101FB000FC01808191810C948512CF93DF93EC0119
:101FC00088819981009711F00E94851219821882E8
:101FD0001D821C821B821A82DF91CF9108950F937C
:101FE0001F93CF93DF93EC018B016F5F7F4F88814D
:101FF00099810E941413009731F0998388831B8381
:102000000A8381E001C080E0DF91CF911F910F91A1
:102010000895CF93DF93EC0188819981892B29F072
:102020008A819B818617970760F4CE010E94EF0F8B
:10203000882341F08C819D81892B19F4E881F981F5
:10204000108281E0DF91CF910895EF92FF920F937C
:102050001F93CF93DF93EC017B018A01BA010E94A9
:102060000910811104C0CE010E94DD0F07C01D833D
:102070000C83B701888199810E94FE13CE01DF9104
:10208000CF911F910F91FF90EF900895FC01118265
:10209000108213821282158214826115710559F023
:1020A000FB0101900020E9F7AF0141505109461BA7
:1020B000570B0C9425100895CF93DF93EC01FB018F
:1020C0008617970761F0608171816115710529F0AC
:1020D000448155810E94251002C00E94DD0FCE016F
:1020E000DF91CF910895FC01118210821382128238
:1020F000158214820C945C10EF92FF920F931F9341
:10210000CF93DF93EC017B010C811D81611571057B
:1021100011F480E016C04115510591F0040F151F10
:10212000B8010E9409108823A1F3288139818C818C
:102130009D81B701820F931F0E94FE131D830C83A4
:1021400081E0DF91CF911F910F91FF90EF90089563
:10215000FB0144815581608171810C947C10CF9387
:10216000DF93DC01ED91FC91EB01A881B9813097FF
:1021700011F01097C9F4109759F0EB012C813D81B3
:10218000232B31F08C9190E091958195910914C0A9
:10219000309781F0DC0114968D919C911597892BD5
:1021A00049F0808190E008C0BD01CF01DF91CF915F
:1021B0000C94F51380E090E0DF91CF910895FC013D
:1021C00044815581FB01248135814217530741F435
:1021D0000E94AF1021E0892B09F020E0822F0895A2
:1021E00080E00895FC0124813581232B31F421E026
:1021F00061157105A1F0FB0108C0FC01808191818E
:102200006115710531F421E0FC018081882339F0EA
:1022100005C00E94F51321E0892B09F020E0822FF0
:1022200008950E94AF10892F881F8827881F08955E
:102230001F920F920FB60F9211242F933F938F93FB
:102240009F93AF93BF938091EC029091ED02A09188
:10225000EE02B091EF023091EB0223E0230F2D3715
:1022600020F40196A11DB11D05C026E8230F02969A
:10227000A11DB11D2093EB028093EC029093ED021F
:10228000A093EE02B093EF028091F0029091F102E0
:10229000A091F202B091F3020196A11DB11D8093AD
:1022A000F0029093F102A093F202B093F302BF9177
:1022B000AF919F918F913F912F910F900FBE0F90F3
:1022C0001F901895789484B5826084BD84B5816030
:1022D00084BD85B5826085BD85B5816085BDEEE62E
:1022E000F0E0808181608083E1E8F0E0108280810D
:1022F00082608083808181608083E0E8F0E080817B
:1023000081608083E1EBF0E0808184608083E0EB9A
:10231000F0E0808181608083EAE7F0E08081846082
:1023200080838081826080838081816080838081DE
:10233000806880831092C100089597FB072E16F4E1
:10234000009407D077FD09D00E94D31107FC05D077
:102350003EF4909581959F4F0895709561957F4FBC
:102360000895A1E21A2EAA1BBB1BFD010DC0AA1FD6
:10237000BB1FEE1FFF1FA217B307E407F50720F0EE
:10238000A21BB30BE40BF50B661F771F881F991F69
:102390001A9469F760957095809590959B01AC01B2
:1023A000BD01CF010895AA1BBB1B51E107C0AA1FA5
:1023B000BB1FA617B70710F0A61BB70B881F991FE6
:1023C0005A95A9F780959095BC01CD010895EE0F1F
:1023D000FF1F0590F491E02D0994CF93DF93823095
:1023E000910510F482E090E0E091F602F091F7029E
:1023F00020E030E0A0E0B0E0309739F14081518139
:1024000048175907B8F04817590771F4828193812A
:10241000109729F013969C938E9312972CC090934B
:10242000F7028093F60227C02115310531F04217DB
:10243000530718F0A901DB0101C0EF019A01BD01AA
:10244000DF010280F381E02DD7CF21153105F9F0AE
:10245000281B390B2430310580F48A819B8161155A
:10246000710521F0FB019383828304C09093F702EE
:102470008093F602FE01329644C0FE01E20FF31F84
:102480008193919322503109398328833AC0209156
:10249000F4023091F502232B41F420910201309196
:1024A00003013093F5022093F40220910001309152
:1024B00001012115310541F42DB73EB740910401CA
:1024C00050910501241B350BE091F402F091F502C7
:1024D000E217F307A0F42E1B3F0B2817390778F0FB
:1024E000AC014E5F5F4F2417350748F04E0F5F1F5A
:1024F0005093F5024093F4028193919302C0E0E07F
:10250000F0E0CF01DF91CF910895CF93DF93009753
:1025100009F487C0FC01329713821282C091F6023F
:10252000D091F702209781F420813181280F391F43
:102530008091F4029091F5028217930779F5F09358
:10254000F502E093F4026DC0DE0120E030E0AE174A
:10255000BF0750F412964D915C9113979D01411560
:10256000510509F1DA01F3CFB383A2834081518190
:10257000840F951F8A179B0771F48D919C91119779
:10258000840F951F02969183808312968D919C9162
:102590001397938382832115310529F4F093F70271
:1025A000E093F6023EC0D9011396FC93EE93129786
:1025B0004D915D91A40FB51FEA17FB0779F4808157
:1025C0009181840F951F0296D90111969C938E9349
:1025D0008281938113969C938E931297E0E0F0E0B2
:1025E0008A819B81009719F0FE01EC01F9CFCE01A1
:1025F000029628813981820F931F2091F402309135
:10260000F5022817390769F4309729F41092F70278
:102610001092F60202C013821282D093F502C09388
:10262000F402DF91CF910895A0E0B0E0EAE1F3E198
:102630000C940914EC01CB01209719F40E94ED11C0
:10264000B8C0FE01E60FF71F9E0122503109E217C4
:10265000F30708F4ACC0D9010D911C91119706172E
:102660001707B8F00530110508F49FC0A8014450C1
:1026700051094617570708F498C002501109061B64
:10268000170B019311936D937C93CF010E948512D8
:102690008CC05B01A01AB10A4E01800E911EA09160
:1026A000F602B091F702612C712C60E070E0109797
:1026B00009F449C0A815B905C9F5ED90FC9011972A
:1026C000670142E0C40ED11CCA14DB0478F1470153
:1026D0008A189B08640142E0C40ED11C1296BC907B
:1026E00012971396AC91B5E0CB16D10440F0B282AC
:1026F000A38391828082D9018D939C9309C00E5F40
:102700001F4F0E0D1F1DF90111830083EB2DFA2FB2
:102710006115710531F0DB011396FC93EE9312976E
:1027200044C0F093F702E093F6023FC06D917C91B4
:1027300011976616770608F43B01BD0112960D90BD
:10274000BC91A02DB4CF6091F4027091F502681590
:102750007905E9F468167906D0F4409100015091AA
:1027600001014115510541F44DB75EB76091040177
:1027700070910501461B570BE417F507C0F4F09361
:10278000F502E093F402F901918380830EC00E9468
:10279000ED117C01009759F0A801BE010E94EC13D5
:1027A000CE010E948512C70104C0CE0102C080E0A4
:1027B00090E0CDB7DEB7EEE00C94251481E090E018
:1027C000F8940C943C14FB01DC0102C005900D92BE
:1027D00041505040D8F70895FB01DC0102C0019040
:1027E0000D9241505040D8F70895FB01DC018D91C6
:1027F000019080190110D9F3990B0895FB01DC01B8
:1028000001900D920020E1F708952F923F924F9290
:102810005F926F927F928F929F92AF92BF92CF9270
:10282000DF92EF92FF920F931F93CF93DF93CDB779
:10283000DEB7CA1BDB0B0FB6F894DEBF0FBECDBFF1
:1028400009942A88398848885F846E847D848C84C2
:102850009B84AA84B984C884DF80EE80FD800C81CB
:102860001B81AA81B981CE0FD11D0FB6F894DEBFAE
:102870000FBECDBFED01089514E0C0E0D4E004C068
:10288000FE010E94E9112296C230D107C9F7F894DF
:02289000FFCF78
:102892000000F80280004E02013F2E00343537332B
:1028A200202D205945530073656E736F723000748A
:1028B200656D706572617475726500343233342EE1
:1028C20033343233342C20323839352E323334001B
:1028D2006C6F636174696F6E00343233342E33343B
:1028E2003233342C20323839352E32333432352ECD
:1028F20038004E4F5420464F554E44000000000011
:102902002B0200000000EC09ED096B02AE02F90394
:1029120000000000EC09ED096402A4026205000057
:102922000000EC09ED095D029A0238040000000083
:10293200EC09ED0956029002040600000000EC09C1
:10294200ED094F028602740600000000EC09ED0951
:1029520048027C02020700000000FE09000000009D
:10296200EC096A0CB00BB70B00000000EC09ED0992
:10297200410272026A0C00000000EC0C6C0E6C0C3E
:06298200870C790CCA0C61
:00000001FF
